{
  "contractName": "BaseVariables",
  "abi": [
    {
      "inputs": [],
      "stateMutability": "nonpayable",
      "type": "constructor"
    },
    {
      "inputs": [
        {
          "internalType": "address",
          "name": "owner",
          "type": "address"
        }
      ],
      "name": "OwnableInvalidOwner",
      "type": "error"
    },
    {
      "inputs": [
        {
          "internalType": "address",
          "name": "account",
          "type": "address"
        }
      ],
      "name": "OwnableUnauthorizedAccount",
      "type": "error"
    },
    {
      "anonymous": false,
      "inputs": [
        {
          "indexed": true,
          "internalType": "address",
          "name": "previousOwner",
          "type": "address"
        },
        {
          "indexed": true,
          "internalType": "address",
          "name": "newOwner",
          "type": "address"
        }
      ],
      "name": "OwnershipTransferred",
      "type": "event"
    },
    {
      "inputs": [],
      "name": "COMMITMENT_EXPIRATION",
      "outputs": [
        {
          "internalType": "uint256",
          "name": "",
          "type": "uint256"
        }
      ],
      "stateMutability": "view",
      "type": "function"
    },
    {
      "inputs": [],
      "name": "MAX_DELAY",
      "outputs": [
        {
          "internalType": "uint256",
          "name": "",
          "type": "uint256"
        }
      ],
      "stateMutability": "view",
      "type": "function"
    },
    {
      "inputs": [],
      "name": "MAX_DEPOSIT_AMOUNT",
      "outputs": [
        {
          "internalType": "uint256",
          "name": "",
          "type": "uint256"
        }
      ],
      "stateMutability": "view",
      "type": "function"
    },
    {
      "inputs": [],
      "name": "MIN_DELAY",
      "outputs": [
        {
          "internalType": "uint256",
          "name": "",
          "type": "uint256"
        }
      ],
      "stateMutability": "view",
      "type": "function"
    },
    {
      "inputs": [],
      "name": "MIN_DEPOSIT_AMOUNT",
      "outputs": [
        {
          "internalType": "uint256",
          "name": "",
          "type": "uint256"
        }
      ],
      "stateMutability": "view",
      "type": "function"
    },
    {
      "inputs": [],
      "name": "QUORUM_PERCENTAGE",
      "outputs": [
        {
          "internalType": "uint256",
          "name": "",
          "type": "uint256"
        }
      ],
      "stateMutability": "view",
      "type": "function"
    },
    {
      "inputs": [],
      "name": "activeProposals",
      "outputs": [
        {
          "internalType": "uint256",
          "name": "",
          "type": "uint256"
        }
      ],
      "stateMutability": "view",
      "type": "function"
    },
    {
      "inputs": [],
      "name": "completedProposals",
      "outputs": [
        {
          "internalType": "uint256",
          "name": "",
          "type": "uint256"
        }
      ],
      "stateMutability": "view",
      "type": "function"
    },
    {
      "inputs": [],
      "name": "currentEpochHash",
      "outputs": [
        {
          "internalType": "bytes32",
          "name": "",
          "type": "bytes32"
        }
      ],
      "stateMutability": "view",
      "type": "function"
    },
    {
      "inputs": [],
      "name": "governance",
      "outputs": [
        {
          "internalType": "address",
          "name": "",
          "type": "address"
        }
      ],
      "stateMutability": "view",
      "type": "function"
    },
    {
      "inputs": [],
      "name": "isDepositPaused",
      "outputs": [
        {
          "internalType": "bool",
          "name": "",
          "type": "bool"
        }
      ],
      "stateMutability": "view",
      "type": "function"
    },
    {
      "inputs": [],
      "name": "isSystemPaused",
      "outputs": [
        {
          "internalType": "bool",
          "name": "",
          "type": "bool"
        }
      ],
      "stateMutability": "view",
      "type": "function"
    },
    {
      "inputs": [],
      "name": "isVotingPaused",
      "outputs": [
        {
          "internalType": "bool",
          "name": "",
          "type": "bool"
        }
      ],
      "stateMutability": "view",
      "type": "function"
    },
    {
      "inputs": [],
      "name": "maxVotingPower",
      "outputs": [
        {
          "internalType": "uint256",
          "name": "",
          "type": "uint256"
        }
      ],
      "stateMutability": "view",
      "type": "function"
    },
    {
      "inputs": [],
      "name": "minVotingPower",
      "outputs": [
        {
          "internalType": "uint256",
          "name": "",
          "type": "uint256"
        }
      ],
      "stateMutability": "view",
      "type": "function"
    },
    {
      "inputs": [],
      "name": "nextProposalId",
      "outputs": [
        {
          "internalType": "uint256",
          "name": "",
          "type": "uint256"
        }
      ],
      "stateMutability": "view",
      "type": "function"
    },
    {
      "inputs": [],
      "name": "oracle",
      "outputs": [
        {
          "internalType": "address",
          "name": "",
          "type": "address"
        }
      ],
      "stateMutability": "view",
      "type": "function"
    },
    {
      "inputs": [],
      "name": "owner",
      "outputs": [
        {
          "internalType": "address",
          "name": "",
          "type": "address"
        }
      ],
      "stateMutability": "view",
      "type": "function"
    },
    {
      "inputs": [],
      "name": "proposalThreshold",
      "outputs": [
        {
          "internalType": "uint256",
          "name": "",
          "type": "uint256"
        }
      ],
      "stateMutability": "view",
      "type": "function"
    },
    {
      "inputs": [],
      "name": "randomDelay",
      "outputs": [
        {
          "internalType": "uint256",
          "name": "",
          "type": "uint256"
        }
      ],
      "stateMutability": "view",
      "type": "function"
    },
    {
      "inputs": [],
      "name": "renounceOwnership",
      "outputs": [],
      "stateMutability": "nonpayable",
      "type": "function"
    },
    {
      "inputs": [],
      "name": "rewardToken",
      "outputs": [
        {
          "internalType": "contract IERC20",
          "name": "",
          "type": "address"
        }
      ],
      "stateMutability": "view",
      "type": "function"
    },
    {
      "inputs": [],
      "name": "stakeToken",
      "outputs": [
        {
          "internalType": "contract IERC20",
          "name": "",
          "type": "address"
        }
      ],
      "stateMutability": "view",
      "type": "function"
    },
    {
      "inputs": [],
      "name": "totalDeposits",
      "outputs": [
        {
          "internalType": "uint256",
          "name": "",
          "type": "uint256"
        }
      ],
      "stateMutability": "view",
      "type": "function"
    },
    {
      "inputs": [
        {
          "internalType": "address",
          "name": "newOwner",
          "type": "address"
        }
      ],
      "name": "transferOwnership",
      "outputs": [],
      "stateMutability": "nonpayable",
      "type": "function"
    },
    {
      "inputs": [],
      "name": "treasury",
      "outputs": [
        {
          "internalType": "address",
          "name": "",
          "type": "address"
        }
      ],
      "stateMutability": "view",
      "type": "function"
    },
    {
      "inputs": [],
      "name": "validator",
      "outputs": [
        {
          "internalType": "address",
          "name": "",
          "type": "address"
        }
      ],
      "stateMutability": "view",
      "type": "function"
    },
    {
      "inputs": [],
      "name": "votingPeriod",
      "outputs": [
        {
          "internalType": "uint256",
          "name": "",
          "type": "uint256"
        }
      ],
      "stateMutability": "view",
      "type": "function"
    },
    {
      "inputs": [],
      "name": "votingToken",
      "outputs": [
        {
          "internalType": "contract IERC20",
          "name": "",
          "type": "address"
        }
      ],
      "stateMutability": "view",
      "type": "function"
    }
  ],
  "bytecode": "0x608060405262015180600155610e1060025534801561001c575f5ffd5b50335f73ffffffffffffffffffffffffffffffffffffffff168173ffffffffffffffffffffffffffffffffffffffff160361008e575f6040517f1e4fbdf700000000000000000000000000000000000000000000000000000000815260040161008591906101a3565b60405180910390fd5b61009d816100a360201b60201c565b506101bc565b5f5f5f9054906101000a900473ffffffffffffffffffffffffffffffffffffffff169050815f5f6101000a81548173ffffffffffffffffffffffffffffffffffffffff021916908373ffffffffffffffffffffffffffffffffffffffff1602179055508173ffffffffffffffffffffffffffffffffffffffff168173ffffffffffffffffffffffffffffffffffffffff167f8be0079c531659141344cd1fd0a4f28419497f9722a3daafe3b4186f6b6457e060405160405180910390a35050565b5f73ffffffffffffffffffffffffffffffffffffffff82169050919050565b5f61018d82610164565b9050919050565b61019d81610183565b82525050565b5f6020820190506101b65f830184610194565b92915050565b610ac8806101c95f395ff3fe608060405234801561000f575f5ffd5b50600436106101cd575f3560e01c80637b237ffc11610102578063a76c69e2116100a0578063ee8a7c151161006f578063ee8a7c15146104ab578063f2fde38b146104c9578063f560d0b2146104e5578063f7c618c114610503576101cd565b8063a76c69e214610433578063b034012314610451578063b58131b01461046f578063bdb69a7b1461048d576101cd565b80638da5cb5b116100dc5780638da5cb5b146103bb5780639ef0fb85146103d95780639f81aed7146103f7578063a485a27614610415576101cd565b80637b237ffc146103615780637d8820971461037f5780637dc0d1d01461039d576101cd565b80634c34a9821161016f5780635b5d036b116101495780635b5d036b146102fd57806361d027b31461031b578063715018a6146103395780637691c4ac14610343576101cd565b80634c34a982146102a357806351ed6a30146102c15780635aa6e675146102df576101cd565b80632ab09d14116101ab5780632ab09d141461022b57806336fffde0146102495780633a5381b5146102675780634125ff9014610285576101cd565b806302a251a3146101d1578063109c3d27146101ef5780631ea30fef1461020d575b5f5ffd5b6101d9610521565b6040516101e691906108f0565b60405180910390f35b6101f7610527565b60405161020491906108f0565b60405180910390f35b61021561052d565b60405161022291906108f0565b60405180910390f35b610233610539565b60405161024091906108f0565b60405180910390f35b61025161053f565b60405161025e91906108f0565b60405180910390f35b61026f610545565b60405161027c9190610948565b60405180910390f35b61028d61056a565b60405161029a91906108f0565b60405180910390f35b6102ab610571565b6040516102b891906108f0565b60405180910390f35b6102c961057e565b6040516102d691906109bc565b60405180910390f35b6102e76105a3565b6040516102f49190610948565b60405180910390f35b6103056105c8565b60405161031291906108f0565b60405180910390f35b6103236105ce565b6040516103309190610948565b60405180910390f35b6103416105f3565b005b61034b610606565b60405161035891906109ef565b60405180910390f35b610369610619565b60405161037691906108f0565b60405180910390f35b610387610620565b60405161039491906108f0565b60405180910390f35b6103a5610626565b6040516103b29190610948565b60405180910390f35b6103c361064b565b6040516103d09190610948565b60405180910390f35b6103e1610672565b6040516103ee91906108f0565b60405180910390f35b6103ff610678565b60405161040c91906108f0565b60405180910390f35b61041d61067e565b60405161042a91906109ef565b60405180910390f35b61043b610691565b60405161044891906108f0565b60405180910390f35b610459610697565b60405161046691906109bc565b60405180910390f35b6104776106bc565b60405161048491906108f0565b60405180910390f35b6104956106c2565b6040516104a29190610a20565b60405180910390f35b6104b36106c8565b6040516104c091906108f0565b60405180910390f35b6104e360048036038101906104de9190610a67565b6106cd565b005b6104ed610751565b6040516104fa91906109ef565b60405180910390f35b61050b610764565b60405161051891906109bc565b60405180910390f35b60015481565b60055481565b670de0b6b3a764000081565b60035481565b600e5481565b600d5f9054906101000a900473ffffffffffffffffffffffffffffffffffffffff1681565b62093a8081565b683635c9adc5dea0000081565b60095f9054906101000a900473ffffffffffffffffffffffffffffffffffffffff1681565b600b5f9054906101000a900473ffffffffffffffffffffffffffffffffffffffff1681565b60065481565b600a5f9054906101000a900473ffffffffffffffffffffffffffffffffffffffff1681565b6105fb610789565b6106045f610810565b565b600960169054906101000a900460ff1681565b6201518081565b60045481565b600c5f9054906101000a900473ffffffffffffffffffffffffffffffffffffffff1681565b5f5f5f9054906101000a900473ffffffffffffffffffffffffffffffffffffffff16905090565b600f5481565b610e1081565b600960149054906101000a900460ff1681565b60025481565b60075f9054906101000a900473ffffffffffffffffffffffffffffffffffffffff1681565b60105481565b60115481565b603381565b6106d5610789565b5f73ffffffffffffffffffffffffffffffffffffffff168173ffffffffffffffffffffffffffffffffffffffff1603610745575f6040517f1e4fbdf700000000000000000000000000000000000000000000000000000000815260040161073c9190610948565b60405180910390fd5b61074e81610810565b50565b600960159054906101000a900460ff1681565b60085f9054906101000a900473ffffffffffffffffffffffffffffffffffffffff1681565b6107916108d1565b73ffffffffffffffffffffffffffffffffffffffff166107af61064b565b73ffffffffffffffffffffffffffffffffffffffff161461080e576107d26108d1565b6040517f118cdaa70000000000000000000000000000000000000000000000000000000081526004016108059190610948565b60405180910390fd5b565b5f5f5f9054906101000a900473ffffffffffffffffffffffffffffffffffffffff169050815f5f6101000a81548173ffffffffffffffffffffffffffffffffffffffff021916908373ffffffffffffffffffffffffffffffffffffffff1602179055508173ffffffffffffffffffffffffffffffffffffffff168173ffffffffffffffffffffffffffffffffffffffff167f8be0079c531659141344cd1fd0a4f28419497f9722a3daafe3b4186f6b6457e060405160405180910390a35050565b5f33905090565b5f819050919050565b6108ea816108d8565b82525050565b5f6020820190506109035f8301846108e1565b92915050565b5f73ffffffffffffffffffffffffffffffffffffffff82169050919050565b5f61093282610909565b9050919050565b61094281610928565b82525050565b5f60208201905061095b5f830184610939565b92915050565b5f819050919050565b5f61098461097f61097a84610909565b610961565b610909565b9050919050565b5f6109958261096a565b9050919050565b5f6109a68261098b565b9050919050565b6109b68161099c565b82525050565b5f6020820190506109cf5f8301846109ad565b92915050565b5f8115159050919050565b6109e9816109d5565b82525050565b5f602082019050610a025f8301846109e0565b92915050565b5f819050919050565b610a1a81610a08565b82525050565b5f602082019050610a335f830184610a11565b92915050565b5f5ffd5b610a4681610928565b8114610a50575f5ffd5b50565b5f81359050610a6181610a3d565b92915050565b5f60208284031215610a7c57610a7b610a39565b5b5f610a8984828501610a53565b9150509291505056fea26469706673582212201130d6ef806b445d4f17ed774c4f6d20ff8dcb9525ec49a05da68cbf51609f3664736f6c634300081c0033",
  "immutableReferences": {},
  "source": "// SPDX-License-Identifier: MIT\npragma solidity ^0.8.28;\n\nimport \"@openzeppelin/contracts/token/ERC20/IERC20.sol\";\nimport \"@openzeppelin/contracts/access/Ownable.sol\";\n\n/**\n * @title BaseVariables\n * @dev Contract deployed by Iconoclastdao\n * @notice Deployment timestamp: 2025-04-13 13:53:35 UTC\n * @notice This contract contains all state variables organized by category\n */\ncontract BaseVariables is Ownable {\n\n    // ====== Time Constants ======\n    uint256 public constant COMMITMENT_EXPIRATION = 1 days;\n    uint256 public constant MIN_DELAY = 1 hours;\n    uint256 public constant MAX_DELAY = 7 days;\n    uint256 public votingPeriod = 1 days;\n    uint256 public randomDelay = 1 hours;\n\n    // ====== Amount Constants ======\n    uint256 public constant MIN_DEPOSIT_AMOUNT = 1 * 10**18;  // 1 token\n    uint256 public constant MAX_DEPOSIT_AMOUNT = 1000 * 10**18;  // 1000 tokens\n    uint256 public constant QUORUM_PERCENTAGE = 51;  // 51% for majority\n\n    // ====== Counters ======\n    uint256 public nextProposalId;\n    uint256 public totalDeposits;\n    uint256 public activeProposals;\n    uint256 public completedProposals;\n\n    // ====== Token Related ======\n    IERC20 public votingToken;\n    IERC20 public rewardToken;\n    IERC20 public stakeToken;\n\n    // ====== Status Flags ======\n    bool public isVotingPaused;\n    bool public isDepositPaused;\n    bool public isSystemPaused;\n\n    // ====== System Addresses ======\n    address public treasury;\n    address public governance;\n    address public oracle;\n    address public validator;\n\n    // ====== System Parameters ======\n    uint256 public minVotingPower;\n    uint256 public maxVotingPower;\n    uint256 public proposalThreshold;\n    bytes32 public currentEpochHash;\n\n    constructor() Ownable(msg.sender) {}\n}",
  "sourcePath": "/Users/jameschapman/capsule-core/contracts/BaseVariables.sol",
  "compiler": {
    "name": "solc",
    "version": "0.8.28+commit.7893614a.Emscripten.clang"
  },
  "schemaVersion": "3.4.16",
  "updatedAt": "2025-04-13T16:58:49.895Z",
  "devdoc": {
    "details": "Contract deployed by Iconoclastdao",
    "errors": {
      "OwnableInvalidOwner(address)": [
        {
          "details": "The owner is not a valid owner account. (eg. `address(0)`)"
        }
      ],
      "OwnableUnauthorizedAccount(address)": [
        {
          "details": "The caller account is not authorized to perform an operation."
        }
      ]
    },
    "kind": "dev",
    "methods": {
      "owner()": {
        "details": "Returns the address of the current owner."
      },
      "renounceOwnership()": {
        "details": "Leaves the contract without owner. It will not be possible to call `onlyOwner` functions. Can only be called by the current owner. NOTE: Renouncing ownership will leave the contract without an owner, thereby disabling any functionality that is only available to the owner."
      },
      "transferOwnership(address)": {
        "details": "Transfers ownership of the contract to a new account (`newOwner`). Can only be called by the current owner."
      }
    },
    "title": "BaseVariables",
    "version": 1
  },
  "userdoc": {
    "kind": "user",
    "methods": {},
    "notice": "Deployment timestamp: 2025-04-13 13:53:35 UTCThis contract contains all state variables organized by category",
    "version": 1
  }
}