{
  "contractName": "CapsuleCore",
  "abi": [
    {
      "inputs": [],
      "stateMutability": "nonpayable",
      "type": "constructor"
    },
    {
      "inputs": [
        {
          "internalType": "address",
          "name": "owner",
          "type": "address"
        }
      ],
      "name": "OwnableInvalidOwner",
      "type": "error"
    },
    {
      "inputs": [
        {
          "internalType": "address",
          "name": "account",
          "type": "address"
        }
      ],
      "name": "OwnableUnauthorizedAccount",
      "type": "error"
    },
    {
      "anonymous": false,
      "inputs": [
        {
          "indexed": true,
          "internalType": "uint256",
          "name": "capsuleId",
          "type": "uint256"
        },
        {
          "indexed": true,
          "internalType": "address",
          "name": "claimer",
          "type": "address"
        },
        {
          "indexed": false,
          "internalType": "uint256",
          "name": "timestamp",
          "type": "uint256"
        }
      ],
      "name": "CapsuleClaimed",
      "type": "event"
    },
    {
      "anonymous": false,
      "inputs": [
        {
          "indexed": true,
          "internalType": "uint256",
          "name": "capsuleId",
          "type": "uint256"
        },
        {
          "indexed": true,
          "internalType": "address",
          "name": "creator",
          "type": "address"
        },
        {
          "indexed": false,
          "internalType": "string",
          "name": "dataURI",
          "type": "string"
        }
      ],
      "name": "CapsuleCreated",
      "type": "event"
    },
    {
      "anonymous": false,
      "inputs": [
        {
          "indexed": false,
          "internalType": "uint256",
          "name": "newFee",
          "type": "uint256"
        }
      ],
      "name": "ClaimFeeUpdated",
      "type": "event"
    },
    {
      "anonymous": false,
      "inputs": [
        {
          "indexed": true,
          "internalType": "address",
          "name": "previousOwner",
          "type": "address"
        },
        {
          "indexed": true,
          "internalType": "address",
          "name": "newOwner",
          "type": "address"
        }
      ],
      "name": "OwnershipTransferred",
      "type": "event"
    },
    {
      "anonymous": false,
      "inputs": [
        {
          "indexed": true,
          "internalType": "uint256",
          "name": "proposalId",
          "type": "uint256"
        },
        {
          "indexed": true,
          "internalType": "address",
          "name": "proposer",
          "type": "address"
        },
        {
          "indexed": false,
          "internalType": "string",
          "name": "description",
          "type": "string"
        }
      ],
      "name": "ProposalCreated",
      "type": "event"
    },
    {
      "anonymous": false,
      "inputs": [
        {
          "indexed": true,
          "internalType": "uint256",
          "name": "proposalId",
          "type": "uint256"
        }
      ],
      "name": "ProposalExecuted",
      "type": "event"
    },
    {
      "anonymous": false,
      "inputs": [
        {
          "indexed": true,
          "internalType": "uint256",
          "name": "proposalId",
          "type": "uint256"
        },
        {
          "indexed": true,
          "internalType": "address",
          "name": "voter",
          "type": "address"
        },
        {
          "indexed": false,
          "internalType": "bool",
          "name": "support",
          "type": "bool"
        },
        {
          "indexed": false,
          "internalType": "uint256",
          "name": "weight",
          "type": "uint256"
        }
      ],
      "name": "Voted",
      "type": "event"
    },
    {
      "inputs": [],
      "name": "COMMITMENT_EXPIRATION",
      "outputs": [
        {
          "internalType": "uint256",
          "name": "",
          "type": "uint256"
        }
      ],
      "stateMutability": "view",
      "type": "function",
      "constant": true
    },
    {
      "inputs": [],
      "name": "MAX_DELAY",
      "outputs": [
        {
          "internalType": "uint256",
          "name": "",
          "type": "uint256"
        }
      ],
      "stateMutability": "view",
      "type": "function",
      "constant": true
    },
    {
      "inputs": [],
      "name": "MAX_DEPOSIT_AMOUNT",
      "outputs": [
        {
          "internalType": "uint256",
          "name": "",
          "type": "uint256"
        }
      ],
      "stateMutability": "view",
      "type": "function",
      "constant": true
    },
    {
      "inputs": [],
      "name": "MIN_DELAY",
      "outputs": [
        {
          "internalType": "uint256",
          "name": "",
          "type": "uint256"
        }
      ],
      "stateMutability": "view",
      "type": "function",
      "constant": true
    },
    {
      "inputs": [],
      "name": "MIN_DEPOSIT_AMOUNT",
      "outputs": [
        {
          "internalType": "uint256",
          "name": "",
          "type": "uint256"
        }
      ],
      "stateMutability": "view",
      "type": "function",
      "constant": true
    },
    {
      "inputs": [],
      "name": "QUORUM_PERCENTAGE",
      "outputs": [
        {
          "internalType": "uint256",
          "name": "",
          "type": "uint256"
        }
      ],
      "stateMutability": "view",
      "type": "function",
      "constant": true
    },
    {
      "inputs": [],
      "name": "activeProposals",
      "outputs": [
        {
          "internalType": "uint256",
          "name": "",
          "type": "uint256"
        }
      ],
      "stateMutability": "view",
      "type": "function",
      "constant": true
    },
    {
      "inputs": [],
      "name": "capsuleAdmin",
      "outputs": [
        {
          "internalType": "address",
          "name": "",
          "type": "address"
        }
      ],
      "stateMutability": "view",
      "type": "function",
      "constant": true
    },
    {
      "inputs": [],
      "name": "capsuleCounter",
      "outputs": [
        {
          "internalType": "uint256",
          "name": "",
          "type": "uint256"
        }
      ],
      "stateMutability": "view",
      "type": "function",
      "constant": true
    },
    {
      "inputs": [
        {
          "internalType": "uint256",
          "name": "capsuleId",
          "type": "uint256"
        }
      ],
      "name": "claimCapsule",
      "outputs": [],
      "stateMutability": "payable",
      "type": "function",
      "payable": true
    },
    {
      "inputs": [],
      "name": "claimFee",
      "outputs": [
        {
          "internalType": "uint256",
          "name": "",
          "type": "uint256"
        }
      ],
      "stateMutability": "view",
      "type": "function",
      "constant": true
    },
    {
      "inputs": [],
      "name": "completedProposals",
      "outputs": [
        {
          "internalType": "uint256",
          "name": "",
          "type": "uint256"
        }
      ],
      "stateMutability": "view",
      "type": "function",
      "constant": true
    },
    {
      "inputs": [
        {
          "internalType": "string",
          "name": "_dataURI",
          "type": "string"
        }
      ],
      "name": "createCapsule",
      "outputs": [],
      "stateMutability": "nonpayable",
      "type": "function"
    },
    {
      "inputs": [],
      "name": "currentEpochHash",
      "outputs": [
        {
          "internalType": "bytes32",
          "name": "",
          "type": "bytes32"
        }
      ],
      "stateMutability": "view",
      "type": "function",
      "constant": true
    },
    {
      "inputs": [],
      "name": "governance",
      "outputs": [
        {
          "internalType": "address",
          "name": "",
          "type": "address"
        }
      ],
      "stateMutability": "view",
      "type": "function",
      "constant": true
    },
    {
      "inputs": [],
      "name": "isDepositPaused",
      "outputs": [
        {
          "internalType": "bool",
          "name": "",
          "type": "bool"
        }
      ],
      "stateMutability": "view",
      "type": "function",
      "constant": true
    },
    {
      "inputs": [],
      "name": "isSystemPaused",
      "outputs": [
        {
          "internalType": "bool",
          "name": "",
          "type": "bool"
        }
      ],
      "stateMutability": "view",
      "type": "function",
      "constant": true
    },
    {
      "inputs": [],
      "name": "isVotingPaused",
      "outputs": [
        {
          "internalType": "bool",
          "name": "",
          "type": "bool"
        }
      ],
      "stateMutability": "view",
      "type": "function",
      "constant": true
    },
    {
      "inputs": [],
      "name": "maxVotingPower",
      "outputs": [
        {
          "internalType": "uint256",
          "name": "",
          "type": "uint256"
        }
      ],
      "stateMutability": "view",
      "type": "function",
      "constant": true
    },
    {
      "inputs": [],
      "name": "minVotingPower",
      "outputs": [
        {
          "internalType": "uint256",
          "name": "",
          "type": "uint256"
        }
      ],
      "stateMutability": "view",
      "type": "function",
      "constant": true
    },
    {
      "inputs": [],
      "name": "nextProposalId",
      "outputs": [
        {
          "internalType": "uint256",
          "name": "",
          "type": "uint256"
        }
      ],
      "stateMutability": "view",
      "type": "function",
      "constant": true
    },
    {
      "inputs": [],
      "name": "oracle",
      "outputs": [
        {
          "internalType": "address",
          "name": "",
          "type": "address"
        }
      ],
      "stateMutability": "view",
      "type": "function",
      "constant": true
    },
    {
      "inputs": [],
      "name": "owner",
      "outputs": [
        {
          "internalType": "address",
          "name": "",
          "type": "address"
        }
      ],
      "stateMutability": "view",
      "type": "function",
      "constant": true
    },
    {
      "inputs": [],
      "name": "proposalThreshold",
      "outputs": [
        {
          "internalType": "uint256",
          "name": "",
          "type": "uint256"
        }
      ],
      "stateMutability": "view",
      "type": "function",
      "constant": true
    },
    {
      "inputs": [],
      "name": "randomDelay",
      "outputs": [
        {
          "internalType": "uint256",
          "name": "",
          "type": "uint256"
        }
      ],
      "stateMutability": "view",
      "type": "function",
      "constant": true
    },
    {
      "inputs": [],
      "name": "renounceOwnership",
      "outputs": [],
      "stateMutability": "nonpayable",
      "type": "function"
    },
    {
      "inputs": [],
      "name": "rewardToken",
      "outputs": [
        {
          "internalType": "contract IERC20",
          "name": "",
          "type": "address"
        }
      ],
      "stateMutability": "view",
      "type": "function",
      "constant": true
    },
    {
      "inputs": [
        {
          "internalType": "uint256",
          "name": "newFee",
          "type": "uint256"
        }
      ],
      "name": "setClaimFee",
      "outputs": [],
      "stateMutability": "nonpayable",
      "type": "function"
    },
    {
      "inputs": [],
      "name": "stakeToken",
      "outputs": [
        {
          "internalType": "contract IERC20",
          "name": "",
          "type": "address"
        }
      ],
      "stateMutability": "view",
      "type": "function",
      "constant": true
    },
    {
      "inputs": [],
      "name": "totalDeposits",
      "outputs": [
        {
          "internalType": "uint256",
          "name": "",
          "type": "uint256"
        }
      ],
      "stateMutability": "view",
      "type": "function",
      "constant": true
    },
    {
      "inputs": [
        {
          "internalType": "address",
          "name": "newOwner",
          "type": "address"
        }
      ],
      "name": "transferOwnership",
      "outputs": [],
      "stateMutability": "nonpayable",
      "type": "function"
    },
    {
      "inputs": [],
      "name": "treasury",
      "outputs": [
        {
          "internalType": "address",
          "name": "",
          "type": "address"
        }
      ],
      "stateMutability": "view",
      "type": "function",
      "constant": true
    },
    {
      "inputs": [],
      "name": "validator",
      "outputs": [
        {
          "internalType": "address",
          "name": "",
          "type": "address"
        }
      ],
      "stateMutability": "view",
      "type": "function",
      "constant": true
    },
    {
      "inputs": [],
      "name": "votingPeriod",
      "outputs": [
        {
          "internalType": "uint256",
          "name": "",
          "type": "uint256"
        }
      ],
      "stateMutability": "view",
      "type": "function",
      "constant": true
    },
    {
      "inputs": [],
      "name": "votingToken",
      "outputs": [
        {
          "internalType": "contract IERC20",
          "name": "",
          "type": "address"
        }
      ],
      "stateMutability": "view",
      "type": "function",
      "constant": true
    }
  ],
  "bytecode": "0x608060405262015180600655610e10600755662386f26fc10000601855348015610027575f5ffd5b50335f73ffffffffffffffffffffffffffffffffffffffff168173ffffffffffffffffffffffffffffffffffffffff1603610099575f6040517f1e4fbdf700000000000000000000000000000000000000000000000000000000815260040161009091906101f0565b60405180910390fd5b6100a8816100ee60201b60201c565b503360195f6101000a81548173ffffffffffffffffffffffffffffffffffffffff021916908373ffffffffffffffffffffffffffffffffffffffff160217905550610209565b5f60055f9054906101000a900473ffffffffffffffffffffffffffffffffffffffff1690508160055f6101000a81548173ffffffffffffffffffffffffffffffffffffffff021916908373ffffffffffffffffffffffffffffffffffffffff1602179055508173ffffffffffffffffffffffffffffffffffffffff168173ffffffffffffffffffffffffffffffffffffffff167f8be0079c531659141344cd1fd0a4f28419497f9722a3daafe3b4186f6b6457e060405160405180910390a35050565b5f73ffffffffffffffffffffffffffffffffffffffff82169050919050565b5f6101da826101b1565b9050919050565b6101ea816101d0565b82525050565b5f6020820190506102035f8301846101e1565b92915050565b611875806102165f395ff3fe608060405260043610610203575f3560e01c80637d88209711610117578063b03401231161009f578063d2db53d71161006e578063d2db53d7146106cd578063ee8a7c15146106f7578063f2fde38b14610721578063f560d0b214610749578063f7c618c11461077357610203565b8063b034012314610627578063b58131b014610651578063bdb69a7b1461067b578063c0889264146106a557610203565b806399d32fc4116100e657806399d32fc4146105555780639ef0fb851461057f5780639f81aed7146105a9578063a485a276146105d3578063a76c69e2146105fd57610203565b80637d882097146104ad5780637dc0d1d0146104d75780638da5cb5b1461050157806394309c971461052b57610203565b80634125ff901161019a5780635b5d036b116101695780635b5d036b146103ef57806361d027b314610419578063715018a6146104435780637691c4ac146104595780637b237ffc1461048357610203565b80634125ff90146103475780634c34a9821461037157806351ed6a301461039b5780635aa6e675146103c557610203565b80632ab09d14116101d65780632ab09d14146102a15780632e75ab50146102cb57806336fffde0146102f35780633a5381b51461031d57610203565b806302a251a3146102075780630f7460d314610231578063109c3d271461024d5780631ea30fef14610277575b5f5ffd5b348015610212575f5ffd5b5061021b61079d565b6040516102289190610fc9565b60405180910390f35b61024b6004803603810190610246919061101d565b6107a3565b005b348015610258575f5ffd5b506102616109db565b60405161026e9190610fc9565b60405180910390f35b348015610282575f5ffd5b5061028b6109e1565b6040516102989190610fc9565b60405180910390f35b3480156102ac575f5ffd5b506102b56109ed565b6040516102c29190610fc9565b60405180910390f35b3480156102d6575f5ffd5b506102f160048036038101906102ec919061101d565b6109f3565b005b3480156102fe575f5ffd5b50610307610aa9565b6040516103149190610fc9565b60405180910390f35b348015610328575f5ffd5b50610331610aaf565b60405161033e9190611087565b60405180910390f35b348015610352575f5ffd5b5061035b610ad4565b6040516103689190610fc9565b60405180910390f35b34801561037c575f5ffd5b50610385610adb565b6040516103929190610fc9565b60405180910390f35b3480156103a6575f5ffd5b506103af610ae8565b6040516103bc91906110fb565b60405180910390f35b3480156103d0575f5ffd5b506103d9610b0d565b6040516103e69190611087565b60405180910390f35b3480156103fa575f5ffd5b50610403610b32565b6040516104109190610fc9565b60405180910390f35b348015610424575f5ffd5b5061042d610b38565b60405161043a9190611087565b60405180910390f35b34801561044e575f5ffd5b50610457610b5d565b005b348015610464575f5ffd5b5061046d610b70565b60405161047a919061112e565b60405180910390f35b34801561048e575f5ffd5b50610497610b83565b6040516104a49190610fc9565b60405180910390f35b3480156104b8575f5ffd5b506104c1610b8a565b6040516104ce9190610fc9565b60405180910390f35b3480156104e2575f5ffd5b506104eb610b90565b6040516104f89190611087565b60405180910390f35b34801561050c575f5ffd5b50610515610bb5565b6040516105229190611087565b60405180910390f35b348015610536575f5ffd5b5061053f610bdd565b60405161054c9190611087565b60405180910390f35b348015610560575f5ffd5b50610569610c02565b6040516105769190610fc9565b60405180910390f35b34801561058a575f5ffd5b50610593610c08565b6040516105a09190610fc9565b60405180910390f35b3480156105b4575f5ffd5b506105bd610c0e565b6040516105ca9190610fc9565b60405180910390f35b3480156105de575f5ffd5b506105e7610c14565b6040516105f4919061112e565b60405180910390f35b348015610608575f5ffd5b50610611610c27565b60405161061e9190610fc9565b60405180910390f35b348015610632575f5ffd5b5061063b610c2d565b60405161064891906110fb565b60405180910390f35b34801561065c575f5ffd5b50610665610c52565b6040516106729190610fc9565b60405180910390f35b348015610686575f5ffd5b5061068f610c58565b60405161069c919061115f565b60405180910390f35b3480156106b0575f5ffd5b506106cb60048036038101906106c691906112b4565b610c5e565b005b3480156106d8575f5ffd5b506106e1610d99565b6040516106ee9190610fc9565b60405180910390f35b348015610702575f5ffd5b5061070b610d9f565b6040516107189190610fc9565b60405180910390f35b34801561072c575f5ffd5b5061074760048036038101906107429190611325565b610da4565b005b348015610754575f5ffd5b5061075d610e28565b60405161076a919061112e565b60405180910390f35b34801561077e575f5ffd5b50610787610e3b565b60405161079491906110fb565b60405180910390f35b60065481565b6018543410156107e8576040517f08c379a00000000000000000000000000000000000000000000000000000000081526004016107df906113aa565b60405180910390fd5b5f5f8281526020019081526020015f206003015f9054906101000a900460ff1615610848576040517f08c379a000000000000000000000000000000000000000000000000000000000815260040161083f90611412565b60405180910390fd5b60015f5f8381526020019081526020015f206003015f6101000a81548160ff0219169083151502179055506001805f8381526020019081526020015f205f6101000a81548160ff02191690831515021790555060025f3373ffffffffffffffffffffffffffffffffffffffff1673ffffffffffffffffffffffffffffffffffffffff1681526020019081526020015f2060405180606001604052808381526020013373ffffffffffffffffffffffffffffffffffffffff16815260200142815250908060018154018082558091505060019003905f5260205f2090600302015f909190919091505f820151815f01556020820151816001015f6101000a81548173ffffffffffffffffffffffffffffffffffffffff021916908373ffffffffffffffffffffffffffffffffffffffff1602179055506040820151816002015550503373ffffffffffffffffffffffffffffffffffffffff16817f062c8e3f61257cd5800ff8d66114a1d8783e87e8517af07d7d81e18a3b09d3a3426040516109d09190610fc9565b60405180910390a350565b600a5481565b670de0b6b3a764000081565b60085481565b6109fb610bb5565b73ffffffffffffffffffffffffffffffffffffffff163373ffffffffffffffffffffffffffffffffffffffff1614610a68576040517f08c379a0000000000000000000000000000000000000000000000000000000008152600401610a5f9061147a565b60405180910390fd5b806018819055507f64374f1a975abb9bc8e8857d704b9ead41989ff599d90c1e8f7d34bc2ebea92a81604051610a9e9190610fc9565b60405180910390a150565b60135481565b60125f9054906101000a900473ffffffffffffffffffffffffffffffffffffffff1681565b62093a8081565b683635c9adc5dea0000081565b600e5f9054906101000a900473ffffffffffffffffffffffffffffffffffffffff1681565b60105f9054906101000a900473ffffffffffffffffffffffffffffffffffffffff1681565b600b5481565b600f5f9054906101000a900473ffffffffffffffffffffffffffffffffffffffff1681565b610b65610e60565b610b6e5f610ee7565b565b600e60169054906101000a900460ff1681565b6201518081565b60095481565b60115f9054906101000a900473ffffffffffffffffffffffffffffffffffffffff1681565b5f60055f9054906101000a900473ffffffffffffffffffffffffffffffffffffffff16905090565b60195f9054906101000a900473ffffffffffffffffffffffffffffffffffffffff1681565b60185481565b60145481565b610e1081565b600e60149054906101000a900460ff1681565b60075481565b600c5f9054906101000a900473ffffffffffffffffffffffffffffffffffffffff1681565b60155481565b60165481565b5f60175f815480929190610c71906114c5565b91905055905060405180608001604052808281526020013373ffffffffffffffffffffffffffffffffffffffff1681526020018381526020015f15158152505f5f8381526020019081526020015f205f820151815f01556020820151816001015f6101000a81548173ffffffffffffffffffffffffffffffffffffffff021916908373ffffffffffffffffffffffffffffffffffffffff1602179055506040820151816002019081610d23919061170a565b506060820151816003015f6101000a81548160ff0219169083151502179055509050503373ffffffffffffffffffffffffffffffffffffffff16817f269295b1cd31303ca3a30f134c0e4ef6a8421ce81d26f79c5d7ad9ddbecda56f84604051610d8d919061181f565b60405180910390a35050565b60175481565b603381565b610dac610e60565b5f73ffffffffffffffffffffffffffffffffffffffff168173ffffffffffffffffffffffffffffffffffffffff1603610e1c575f6040517f1e4fbdf7000000000000000000000000000000000000000000000000000000008152600401610e139190611087565b60405180910390fd5b610e2581610ee7565b50565b600e60159054906101000a900460ff1681565b600d5f9054906101000a900473ffffffffffffffffffffffffffffffffffffffff1681565b610e68610faa565b73ffffffffffffffffffffffffffffffffffffffff16610e86610bb5565b73ffffffffffffffffffffffffffffffffffffffff1614610ee557610ea9610faa565b6040517f118cdaa7000000000000000000000000000000000000000000000000000000008152600401610edc9190611087565b60405180910390fd5b565b5f60055f9054906101000a900473ffffffffffffffffffffffffffffffffffffffff1690508160055f6101000a81548173ffffffffffffffffffffffffffffffffffffffff021916908373ffffffffffffffffffffffffffffffffffffffff1602179055508173ffffffffffffffffffffffffffffffffffffffff168173ffffffffffffffffffffffffffffffffffffffff167f8be0079c531659141344cd1fd0a4f28419497f9722a3daafe3b4186f6b6457e060405160405180910390a35050565b5f33905090565b5f819050919050565b610fc381610fb1565b82525050565b5f602082019050610fdc5f830184610fba565b92915050565b5f604051905090565b5f5ffd5b5f5ffd5b610ffc81610fb1565b8114611006575f5ffd5b50565b5f8135905061101781610ff3565b92915050565b5f6020828403121561103257611031610feb565b5b5f61103f84828501611009565b91505092915050565b5f73ffffffffffffffffffffffffffffffffffffffff82169050919050565b5f61107182611048565b9050919050565b61108181611067565b82525050565b5f60208201905061109a5f830184611078565b92915050565b5f819050919050565b5f6110c36110be6110b984611048565b6110a0565b611048565b9050919050565b5f6110d4826110a9565b9050919050565b5f6110e5826110ca565b9050919050565b6110f5816110db565b82525050565b5f60208201905061110e5f8301846110ec565b92915050565b5f8115159050919050565b61112881611114565b82525050565b5f6020820190506111415f83018461111f565b92915050565b5f819050919050565b61115981611147565b82525050565b5f6020820190506111725f830184611150565b92915050565b5f5ffd5b5f5ffd5b5f601f19601f8301169050919050565b7f4e487b71000000000000000000000000000000000000000000000000000000005f52604160045260245ffd5b6111c682611180565b810181811067ffffffffffffffff821117156111e5576111e4611190565b5b80604052505050565b5f6111f7610fe2565b905061120382826111bd565b919050565b5f67ffffffffffffffff82111561122257611221611190565b5b61122b82611180565b9050602081019050919050565b828183375f83830152505050565b5f61125861125384611208565b6111ee565b9050828152602081018484840111156112745761127361117c565b5b61127f848285611238565b509392505050565b5f82601f83011261129b5761129a611178565b5b81356112ab848260208601611246565b91505092915050565b5f602082840312156112c9576112c8610feb565b5b5f82013567ffffffffffffffff8111156112e6576112e5610fef565b5b6112f284828501611287565b91505092915050565b61130481611067565b811461130e575f5ffd5b50565b5f8135905061131f816112fb565b92915050565b5f6020828403121561133a57611339610feb565b5b5f61134784828501611311565b91505092915050565b5f82825260208201905092915050565b7f496e73756666696369656e7420636c61696d20666565000000000000000000005f82015250565b5f611394601683611350565b915061139f82611360565b602082019050919050565b5f6020820190508181035f8301526113c181611388565b9050919050565b7f416c726561647920636c61696d656400000000000000000000000000000000005f82015250565b5f6113fc600f83611350565b9150611407826113c8565b602082019050919050565b5f6020820190508181035f830152611429816113f0565b9050919050565b7f4e6f7420617574686f72697a65640000000000000000000000000000000000005f82015250565b5f611464600e83611350565b915061146f82611430565b602082019050919050565b5f6020820190508181035f83015261149181611458565b9050919050565b7f4e487b71000000000000000000000000000000000000000000000000000000005f52601160045260245ffd5b5f6114cf82610fb1565b91507fffffffffffffffffffffffffffffffffffffffffffffffffffffffffffffffff820361150157611500611498565b5b600182019050919050565b5f81519050919050565b7f4e487b71000000000000000000000000000000000000000000000000000000005f52602260045260245ffd5b5f600282049050600182168061155a57607f821691505b60208210810361156d5761156c611516565b5b50919050565b5f819050815f5260205f209050919050565b5f6020601f8301049050919050565b5f82821b905092915050565b5f600883026115cf7fffffffffffffffffffffffffffffffffffffffffffffffffffffffffffffffff82611594565b6115d98683611594565b95508019841693508086168417925050509392505050565b5f61160b61160661160184610fb1565b6110a0565b610fb1565b9050919050565b5f819050919050565b611624836115f1565b61163861163082611612565b8484546115a0565b825550505050565b5f5f905090565b61164f611640565b61165a81848461161b565b505050565b5b8181101561167d576116725f82611647565b600181019050611660565b5050565b601f8211156116c25761169381611573565b61169c84611585565b810160208510156116ab578190505b6116bf6116b785611585565b83018261165f565b50505b505050565b5f82821c905092915050565b5f6116e25f19846008026116c7565b1980831691505092915050565b5f6116fa83836116d3565b9150826002028217905092915050565b6117138261150c565b67ffffffffffffffff81111561172c5761172b611190565b5b6117368254611543565b611741828285611681565b5f60209050601f831160018114611772575f8415611760578287015190505b61176a85826116ef565b8655506117d1565b601f19841661178086611573565b5f5b828110156117a757848901518255600182019150602085019450602081019050611782565b868310156117c457848901516117c0601f8916826116d3565b8355505b6001600288020188555050505b505050505050565b8281835e5f83830152505050565b5f6117f18261150c565b6117fb8185611350565b935061180b8185602086016117d9565b61181481611180565b840191505092915050565b5f6020820190508181035f83015261183781846117e7565b90509291505056fea2646970667358221220e6c63dd8cab49355f157cc26c8b7183ebfb0e2d03623fe8272468653b51a3a8764736f6c634300081c0033",
  "immutableReferences": {},
  "source": "// SPDX-License-Identifier: MIT\npragma solidity ^0.8.28;\n\nimport \"./BaseFunction.sol\";\n\n/**\n * @title CapsuleCore\n * @dev Entry point contract for capsule logic\n */\n\n\n   contract CapsuleCore is BaseFunction {\naddress public capsuleAdmin;\n\n    constructor()  {\n        capsuleAdmin = msg.sender;\n    }\n}\n",
  "sourcePath": "/Users/jameschapman/capsule-core/contracts/CapsuleCore.sol",
  "compiler": {
    "name": "solc",
    "version": "0.8.28+commit.7893614a.Emscripten.clang"
  },
  "schemaVersion": "3.4.16",
  "updatedAt": "2025-04-13T17:12:13.748Z",
  "networkType": "ethereum",
  "devdoc": {
    "details": "Entry point contract for capsule logic",
    "errors": {
      "OwnableInvalidOwner(address)": [
        {
          "details": "The owner is not a valid owner account. (eg. `address(0)`)"
        }
      ],
      "OwnableUnauthorizedAccount(address)": [
        {
          "details": "The caller account is not authorized to perform an operation."
        }
      ]
    },
    "kind": "dev",
    "methods": {
      "owner()": {
        "details": "Returns the address of the current owner."
      },
      "renounceOwnership()": {
        "details": "Leaves the contract without owner. It will not be possible to call `onlyOwner` functions. Can only be called by the current owner. NOTE: Renouncing ownership will leave the contract without an owner, thereby disabling any functionality that is only available to the owner."
      },
      "transferOwnership(address)": {
        "details": "Transfers ownership of the contract to a new account (`newOwner`). Can only be called by the current owner."
      }
    },
    "title": "CapsuleCore",
    "version": 1
  },
  "userdoc": {
    "kind": "user",
    "methods": {},
    "version": 1
  }
}